{
  "_format": "hh-sol-artifact-1",
  "contractName": "MilestoneCrowdfunding",
  "sourceName": "contracts/Crowdfunding.sol",
  "abi": [
    {
      "inputs": [
        {
          "internalType": "address",
          "name": "_tokenAddress",
          "type": "address"
        }
      ],
      "stateMutability": "nonpayable",
      "type": "constructor"
    },
    {
      "inputs": [
        {
          "internalType": "address",
          "name": "owner",
          "type": "address"
        }
      ],
      "name": "OwnableInvalidOwner",
      "type": "error"
    },
    {
      "inputs": [
        {
          "internalType": "address",
          "name": "account",
          "type": "address"
        }
      ],
      "name": "OwnableUnauthorizedAccount",
      "type": "error"
    },
    {
      "anonymous": false,
      "inputs": [
        {
          "indexed": true,
          "internalType": "address",
          "name": "previousOwner",
          "type": "address"
        },
        {
          "indexed": true,
          "internalType": "address",
          "name": "newOwner",
          "type": "address"
        }
      ],
      "name": "OwnershipTransferred",
      "type": "event"
    },
    {
      "inputs": [],
      "name": "campaignCount",
      "outputs": [
        {
          "internalType": "uint256",
          "name": "",
          "type": "uint256"
        }
      ],
      "stateMutability": "view",
      "type": "function"
    },
    {
      "inputs": [
        {
          "internalType": "uint256",
          "name": "",
          "type": "uint256"
        }
      ],
      "name": "campaigns",
      "outputs": [
        {
          "internalType": "address",
          "name": "author",
          "type": "address"
        },
        {
          "internalType": "uint256",
          "name": "goal",
          "type": "uint256"
        },
        {
          "internalType": "uint256",
          "name": "deadline",
          "type": "uint256"
        },
        {
          "internalType": "uint256",
          "name": "totalRaised",
          "type": "uint256"
        },
        {
          "internalType": "bool",
          "name": "completed",
          "type": "bool"
        },
        {
          "internalType": "uint256",
          "name": "milestoneCount",
          "type": "uint256"
        }
      ],
      "stateMutability": "view",
      "type": "function"
    },
    {
      "inputs": [
        {
          "internalType": "uint256",
          "name": "_campaignId",
          "type": "uint256"
        }
      ],
      "name": "contribute",
      "outputs": [],
      "stateMutability": "payable",
      "type": "function"
    },
    {
      "inputs": [
        {
          "internalType": "uint256",
          "name": "_goal",
          "type": "uint256"
        },
        {
          "internalType": "uint256",
          "name": "_duration",
          "type": "uint256"
        },
        {
          "internalType": "string[]",
          "name": "_milestoneDescs",
          "type": "string[]"
        },
        {
          "internalType": "uint256[]",
          "name": "_milestoneAmounts",
          "type": "uint256[]"
        }
      ],
      "name": "createCampaign",
      "outputs": [],
      "stateMutability": "nonpayable",
      "type": "function"
    },
    {
      "inputs": [],
      "name": "owner",
      "outputs": [
        {
          "internalType": "address",
          "name": "",
          "type": "address"
        }
      ],
      "stateMutability": "view",
      "type": "function"
    },
    {
      "inputs": [
        {
          "internalType": "uint256",
          "name": "_campaignId",
          "type": "uint256"
        },
        {
          "internalType": "uint256",
          "name": "_milestoneId",
          "type": "uint256"
        }
      ],
      "name": "releaseFunds",
      "outputs": [],
      "stateMutability": "nonpayable",
      "type": "function"
    },
    {
      "inputs": [],
      "name": "renounceOwnership",
      "outputs": [],
      "stateMutability": "nonpayable",
      "type": "function"
    },
    {
      "inputs": [
        {
          "internalType": "uint256",
          "name": "_campaignId",
          "type": "uint256"
        },
        {
          "internalType": "uint256",
          "name": "_milestoneId",
          "type": "uint256"
        }
      ],
      "name": "requestRelease",
      "outputs": [],
      "stateMutability": "nonpayable",
      "type": "function"
    },
    {
      "inputs": [],
      "name": "token",
      "outputs": [
        {
          "internalType": "contract RewardToken",
          "name": "",
          "type": "address"
        }
      ],
      "stateMutability": "view",
      "type": "function"
    },
    {
      "inputs": [
        {
          "internalType": "address",
          "name": "newOwner",
          "type": "address"
        }
      ],
      "name": "transferOwnership",
      "outputs": [],
      "stateMutability": "nonpayable",
      "type": "function"
    },
    {
      "inputs": [
        {
          "internalType": "uint256",
          "name": "_campaignId",
          "type": "uint256"
        },
        {
          "internalType": "uint256",
          "name": "_milestoneId",
          "type": "uint256"
        }
      ],
      "name": "vote",
      "outputs": [],
      "stateMutability": "nonpayable",
      "type": "function"
    }
  ],
  "bytecode": "0x60806040523480156200001157600080fd5b5060405162001ccd38038062001ccd833981810160405281019062000037919062000235565b33600073ffffffffffffffffffffffffffffffffffffffff168173ffffffffffffffffffffffffffffffffffffffff1603620000ad5760006040517f1e4fbdf7000000000000000000000000000000000000000000000000000000008152600401620000a4919062000278565b60405180910390fd5b620000be816200010760201b60201c565b5080600160006101000a81548173ffffffffffffffffffffffffffffffffffffffff021916908373ffffffffffffffffffffffffffffffffffffffff1602179055505062000295565b60008060009054906101000a900473ffffffffffffffffffffffffffffffffffffffff169050816000806101000a81548173ffffffffffffffffffffffffffffffffffffffff021916908373ffffffffffffffffffffffffffffffffffffffff1602179055508173ffffffffffffffffffffffffffffffffffffffff168173ffffffffffffffffffffffffffffffffffffffff167f8be0079c531659141344cd1fd0a4f28419497f9722a3daafe3b4186f6b6457e060405160405180910390a35050565b600080fd5b600073ffffffffffffffffffffffffffffffffffffffff82169050919050565b6000620001fd82620001d0565b9050919050565b6200020f81620001f0565b81146200021b57600080fd5b50565b6000815190506200022f8162000204565b92915050565b6000602082840312156200024e576200024d620001cb565b5b60006200025e848285016200021e565b91505092915050565b6200027281620001f0565b82525050565b60006020820190506200028f600083018462000267565b92915050565b611a2880620002a56000396000f3fe60806040526004361061009c5760003560e01c80638da5cb5b116100645780638da5cb5b14610177578063b384abef146101a2578063c1cbbca7146101cb578063df7843ae146101e7578063f2fde38b14610210578063fc0c546a146102395761009c565b80630bcb4533146100a1578063141961bc146100ca57806330be59441461010c578063715018a6146101355780637274e30d1461014c575b600080fd5b3480156100ad57600080fd5b506100c860048036038101906100c39190610ff4565b610264565b005b3480156100d657600080fd5b506100f160048036038101906100ec9190611093565b61044e565b6040516101039695949392919061112b565b60405180910390f35b34801561011857600080fd5b50610133600480360381019061012e919061118c565b6104b7565b005b34801561014157600080fd5b5061014a6105a2565b005b34801561015857600080fd5b506101616105b6565b60405161016e91906111cc565b60405180910390f35b34801561018357600080fd5b5061018c6105bc565b60405161019991906111e7565b60405180910390f35b3480156101ae57600080fd5b506101c960048036038101906101c4919061118c565b6105e5565b005b6101e560048036038101906101e09190611093565b610800565b005b3480156101f357600080fd5b5061020e6004803603810190610209919061118c565b61096f565b005b34801561021c57600080fd5b506102376004803603810190610232919061122e565b610abc565b005b34801561024557600080fd5b5061024e610b42565b60405161025b91906112ba565b60405180910390f35b80518251146102a8576040517f08c379a000000000000000000000000000000000000000000000000000000000815260040161029f90611332565b60405180910390fd5b600260008154809291906102bb90611381565b919050555060006003600060025481526020019081526020016000209050338160000160006101000a81548173ffffffffffffffffffffffffffffffffffffffff021916908373ffffffffffffffffffffffffffffffffffffffff160217905550848160010181905550834261033191906113c9565b81600201819055508251816005018190555060005b8351811015610446576040518060a0016040528085838151811061036d5761036c6113fd565b5b6020026020010151815260200184838151811061038d5761038c6113fd565b5b60200260200101518152602001600015158152602001600015158152602001600081525082600601600083815260200190815260200160002060008201518160000190816103db9190611639565b506020820151816001015560408201518160020160006101000a81548160ff02191690831515021790555060608201518160020160016101000a81548160ff02191690831515021790555060808201518160030155905050808061043e90611381565b915050610346565b505050505050565b60036020528060005260406000206000915090508060000160009054906101000a900473ffffffffffffffffffffffffffffffffffffffff16908060010154908060020154908060030154908060040160009054906101000a900460ff16908060050154905086565b6003600083815260200190815260200160002060000160009054906101000a900473ffffffffffffffffffffffffffffffffffffffff1673ffffffffffffffffffffffffffffffffffffffff163373ffffffffffffffffffffffffffffffffffffffff161461055b576040517f08c379a000000000000000000000000000000000000000000000000000000000815260040161055290611757565b60405180910390fd5b600160036000848152602001908152602001600020600601600083815260200190815260200160002060020160006101000a81548160ff0219169083151502179055505050565b6105aa610b68565b6105b46000610bef565b565b60025481565b60008060009054906101000a900473ffffffffffffffffffffffffffffffffffffffff16905090565b600060036000848152602001908152602001600020905060008160070160003373ffffffffffffffffffffffffffffffffffffffff1673ffffffffffffffffffffffffffffffffffffffff1681526020019081526020016000205411610680576040517f08c379a0000000000000000000000000000000000000000000000000000000008152600401610677906117c3565b60405180910390fd5b8060080160003373ffffffffffffffffffffffffffffffffffffffff1673ffffffffffffffffffffffffffffffffffffffff168152602001908152602001600020600083815260200190815260200160002060009054906101000a900460ff1615610720576040517f08c379a00000000000000000000000000000000000000000000000000000000081526004016107179061182f565b60405180910390fd5b8060070160003373ffffffffffffffffffffffffffffffffffffffff1673ffffffffffffffffffffffffffffffffffffffff16815260200190815260200160002054816006016000848152602001908152602001600020600301600082825461078991906113c9565b9250508190555060018160080160003373ffffffffffffffffffffffffffffffffffffffff1673ffffffffffffffffffffffffffffffffffffffff168152602001908152602001600020600084815260200190815260200160002060006101000a81548160ff021916908315150217905550505050565b60006003600083815260200190815260200160002090508060020154421061085d576040517f08c379a00000000000000000000000000000000000000000000000000000000081526004016108549061189b565b60405180910390fd5b348160070160003373ffffffffffffffffffffffffffffffffffffffff1673ffffffffffffffffffffffffffffffffffffffff16815260200190815260200160002060008282546108ae91906113c9565b92505081905550348160030160008282546108c991906113c9565b92505081905550600160009054906101000a900473ffffffffffffffffffffffffffffffffffffffff1673ffffffffffffffffffffffffffffffffffffffff166340c10f193360643461091c91906118bb565b6040518363ffffffff1660e01b81526004016109399291906118fd565b600060405180830381600087803b15801561095357600080fd5b505af1158015610967573d6000803e3d6000fd5b505050505050565b6000600360008481526020019081526020016000209050600081600601600084815260200190815260200160002090508060020160009054906101000a900460ff1680156109cc57508060020160019054906101000a900460ff16155b80156109eb5750600282600301546109e49190611955565b8160030154115b610a2a576040517f08c379a0000000000000000000000000000000000000000000000000000000008152600401610a21906119d2565b60405180910390fd5b60018160020160016101000a81548160ff0219169083151502179055508160000160009054906101000a900473ffffffffffffffffffffffffffffffffffffffff1673ffffffffffffffffffffffffffffffffffffffff166108fc82600101549081150290604051600060405180830381858888f19350505050158015610ab5573d6000803e3d6000fd5b5050505050565b610ac4610b68565b600073ffffffffffffffffffffffffffffffffffffffff168173ffffffffffffffffffffffffffffffffffffffff1603610b365760006040517f1e4fbdf7000000000000000000000000000000000000000000000000000000008152600401610b2d91906111e7565b60405180910390fd5b610b3f81610bef565b50565b600160009054906101000a900473ffffffffffffffffffffffffffffffffffffffff1681565b610b70610cb3565b73ffffffffffffffffffffffffffffffffffffffff16610b8e6105bc565b73ffffffffffffffffffffffffffffffffffffffff1614610bed57610bb1610cb3565b6040517f118cdaa7000000000000000000000000000000000000000000000000000000008152600401610be491906111e7565b60405180910390fd5b565b60008060009054906101000a900473ffffffffffffffffffffffffffffffffffffffff169050816000806101000a81548173ffffffffffffffffffffffffffffffffffffffff021916908373ffffffffffffffffffffffffffffffffffffffff1602179055508173ffffffffffffffffffffffffffffffffffffffff168173ffffffffffffffffffffffffffffffffffffffff167f8be0079c531659141344cd1fd0a4f28419497f9722a3daafe3b4186f6b6457e060405160405180910390a35050565b600033905090565b6000604051905090565b600080fd5b600080fd5b6000819050919050565b610ce281610ccf565b8114610ced57600080fd5b50565b600081359050610cff81610cd9565b92915050565b600080fd5b6000601f19601f8301169050919050565b7f4e487b7100000000000000000000000000000000000000000000000000000000600052604160045260246000fd5b610d5382610d0a565b810181811067ffffffffffffffff82111715610d7257610d71610d1b565b5b80604052505050565b6000610d85610cbb565b9050610d918282610d4a565b919050565b600067ffffffffffffffff821115610db157610db0610d1b565b5b602082029050602081019050919050565b600080fd5b600080fd5b600067ffffffffffffffff821115610de757610de6610d1b565b5b610df082610d0a565b9050602081019050919050565b82818337600083830152505050565b6000610e1f610e1a84610dcc565b610d7b565b905082815260208101848484011115610e3b57610e3a610dc7565b5b610e46848285610dfd565b509392505050565b600082601f830112610e6357610e62610d05565b5b8135610e73848260208601610e0c565b91505092915050565b6000610e8f610e8a84610d96565b610d7b565b90508083825260208201905060208402830185811115610eb257610eb1610dc2565b5b835b81811015610ef957803567ffffffffffffffff811115610ed757610ed6610d05565b5b808601610ee48982610e4e565b85526020850194505050602081019050610eb4565b5050509392505050565b600082601f830112610f1857610f17610d05565b5b8135610f28848260208601610e7c565b91505092915050565b600067ffffffffffffffff821115610f4c57610f4b610d1b565b5b602082029050602081019050919050565b6000610f70610f6b84610f31565b610d7b565b90508083825260208201905060208402830185811115610f9357610f92610dc2565b5b835b81811015610fbc5780610fa88882610cf0565b845260208401935050602081019050610f95565b5050509392505050565b600082601f830112610fdb57610fda610d05565b5b8135610feb848260208601610f5d565b91505092915050565b6000806000806080858703121561100e5761100d610cc5565b5b600061101c87828801610cf0565b945050602061102d87828801610cf0565b935050604085013567ffffffffffffffff81111561104e5761104d610cca565b5b61105a87828801610f03565b925050606085013567ffffffffffffffff81111561107b5761107a610cca565b5b61108787828801610fc6565b91505092959194509250565b6000602082840312156110a9576110a8610cc5565b5b60006110b784828501610cf0565b91505092915050565b600073ffffffffffffffffffffffffffffffffffffffff82169050919050565b60006110eb826110c0565b9050919050565b6110fb816110e0565b82525050565b61110a81610ccf565b82525050565b60008115159050919050565b61112581611110565b82525050565b600060c08201905061114060008301896110f2565b61114d6020830188611101565b61115a6040830187611101565b6111676060830186611101565b611174608083018561111c565b61118160a0830184611101565b979650505050505050565b600080604083850312156111a3576111a2610cc5565b5b60006111b185828601610cf0565b92505060206111c285828601610cf0565b9150509250929050565b60006020820190506111e16000830184611101565b92915050565b60006020820190506111fc60008301846110f2565b92915050565b61120b816110e0565b811461121657600080fd5b50565b60008135905061122881611202565b92915050565b60006020828403121561124457611243610cc5565b5b600061125284828501611219565b91505092915050565b6000819050919050565b600061128061127b611276846110c0565b61125b565b6110c0565b9050919050565b600061129282611265565b9050919050565b60006112a482611287565b9050919050565b6112b481611299565b82525050565b60006020820190506112cf60008301846112ab565b92915050565b600082825260208201905092915050565b7f4d69736d61746368206c656e6774687300000000000000000000000000000000600082015250565b600061131c6010836112d5565b9150611327826112e6565b602082019050919050565b6000602082019050818103600083015261134b8161130f565b9050919050565b7f4e487b7100000000000000000000000000000000000000000000000000000000600052601160045260246000fd5b600061138c82610ccf565b91507fffffffffffffffffffffffffffffffffffffffffffffffffffffffffffffffff82036113be576113bd611352565b5b600182019050919050565b60006113d482610ccf565b91506113df83610ccf565b92508282019050808211156113f7576113f6611352565b5b92915050565b7f4e487b7100000000000000000000000000000000000000000000000000000000600052603260045260246000fd5b600081519050919050565b7f4e487b7100000000000000000000000000000000000000000000000000000000600052602260045260246000fd5b6000600282049050600182168061147e57607f821691505b60208210810361149157611490611437565b5b50919050565b60008190508160005260206000209050919050565b60006020601f8301049050919050565b600082821b905092915050565b6000600883026114f97fffffffffffffffffffffffffffffffffffffffffffffffffffffffffffffffff826114bc565b61150386836114bc565b95508019841693508086168417925050509392505050565b600061153661153161152c84610ccf565b61125b565b610ccf565b9050919050565b6000819050919050565b6115508361151b565b61156461155c8261153d565b8484546114c9565b825550505050565b600090565b61157961156c565b611584818484611547565b505050565b5b818110156115a85761159d600082611571565b60018101905061158a565b5050565b601f8211156115ed576115be81611497565b6115c7846114ac565b810160208510156115d6578190505b6115ea6115e2856114ac565b830182611589565b50505b505050565b600082821c905092915050565b6000611610600019846008026115f2565b1980831691505092915050565b600061162983836115ff565b9150826002028217905092915050565b6116428261142c565b67ffffffffffffffff81111561165b5761165a610d1b565b5b6116658254611466565b6116708282856115ac565b600060209050601f8311600181146116a35760008415611691578287015190505b61169b858261161d565b865550611703565b601f1984166116b186611497565b60005b828110156116d9578489015182556001820191506020850194506020810190506116b4565b868310156116f657848901516116f2601f8916826115ff565b8355505b6001600288020188555050505b505050505050565b7f4e6f7420617574686f7200000000000000000000000000000000000000000000600082015250565b6000611741600a836112d5565b915061174c8261170b565b602082019050919050565b6000602082019050818103600083015261177081611734565b9050919050565b7f4e6f20636f6e747269627574696f6e0000000000000000000000000000000000600082015250565b60006117ad600f836112d5565b91506117b882611777565b602082019050919050565b600060208201905081810360008301526117dc816117a0565b9050919050565b7f566f74656420616c726561647900000000000000000000000000000000000000600082015250565b6000611819600d836112d5565b9150611824826117e3565b602082019050919050565b600060208201905081810360008301526118488161180c565b9050919050565b7f456e646564000000000000000000000000000000000000000000000000000000600082015250565b60006118856005836112d5565b91506118908261184f565b602082019050919050565b600060208201905081810360008301526118b481611878565b9050919050565b60006118c682610ccf565b91506118d183610ccf565b92508282026118df81610ccf565b915082820484148315176118f6576118f5611352565b5b5092915050565b600060408201905061191260008301856110f2565b61191f6020830184611101565b9392505050565b7f4e487b7100000000000000000000000000000000000000000000000000000000600052601260045260246000fd5b600061196082610ccf565b915061196b83610ccf565b92508261197b5761197a611926565b5b828204905092915050565b7f43616e6e6f742072656c65617365000000000000000000000000000000000000600082015250565b60006119bc600e836112d5565b91506119c782611986565b602082019050919050565b600060208201905081810360008301526119eb816119af565b905091905056fea2646970667358221220307cce488769d7ac0c54e483d9c564ef842e70602f61d51590ca3e18cb3d6ab764736f6c63430008140033",
  "linkReferences": {},
  "deployedLinkReferences": {}
}