{
  "_format": "hh-sol-artifact-1",
  "contractName": "TrustLayer",
  "sourceName": "contracts/TrustLayer.sol",
  "abi": [
    {
      "anonymous": false,
      "inputs": [
        {
          "indexed": false,
          "internalType": "address",
          "name": "campaignAddress",
          "type": "address"
        },
        {
          "indexed": false,
          "internalType": "address",
          "name": "creator",
          "type": "address"
        },
        {
          "indexed": false,
          "internalType": "string",
          "name": "title",
          "type": "string"
        },
        {
          "indexed": false,
          "internalType": "uint256",
          "name": "goal",
          "type": "uint256"
        }
      ],
      "name": "CampaignCreated",
      "type": "event"
    },
    {
      "inputs": [
        {
          "internalType": "string",
          "name": "_title",
          "type": "string"
        },
        {
          "internalType": "string",
          "name": "_description",
          "type": "string"
        },
        {
          "internalType": "uint256",
          "name": "_goal",
          "type": "uint256"
        },
        {
          "internalType": "uint256",
          "name": "_duration",
          "type": "uint256"
        }
      ],
      "name": "createCampaign",
      "outputs": [],
      "stateMutability": "nonpayable",
      "type": "function"
    },
    {
      "inputs": [
        {
          "internalType": "uint256",
          "name": "",
          "type": "uint256"
        }
      ],
      "name": "deployedCampaigns",
      "outputs": [
        {
          "internalType": "contract Campaign",
          "name": "",
          "type": "address"
        }
      ],
      "stateMutability": "view",
      "type": "function"
    },
    {
      "inputs": [],
      "name": "getDeployedCampaigns",
      "outputs": [
        {
          "internalType": "contract Campaign[]",
          "name": "",
          "type": "address[]"
        }
      ],
      "stateMutability": "view",
      "type": "function"
    }
  ],
  "bytecode": "0x608060405234801561001057600080fd5b50612e0b806100206000396000f3fe60806040523480156200001157600080fd5b5060043610620000465760003560e01c8063339d50a5146200004b5780634acb9d4f1462000081578063a318f26914620000a3575b600080fd5b620000696004803603810190620000639190620002de565b620000c3565b6040516200007891906200039b565b60405180910390f35b6200008b62000103565b6040516200009a919062000486565b60405180910390f35b620000c16004803603810190620000bb91906200060c565b62000193565b005b60008181548110620000d457600080fd5b906000526020600020016000915054906101000a900473ffffffffffffffffffffffffffffffffffffffff1681565b606060008054806020026020016040519081016040528092919081815260200182805480156200018957602002820191906000526020600020905b8160009054906101000a900473ffffffffffffffffffffffffffffffffffffffff1673ffffffffffffffffffffffffffffffffffffffff16815260200190600101908083116200013e575b5050505050905090565b60003385858585604051620001a89062000281565b620001b89594939291906200077b565b604051809103906000f080158015620001d5573d6000803e3d6000fd5b5090506000819080600181540180825580915050600190039060005260206000200160009091909190916101000a81548173ffffffffffffffffffffffffffffffffffffffff021916908373ffffffffffffffffffffffffffffffffffffffff1602179055507f011e52f88446cffe402f824c74be32fb23411b1333a3d5df3b2b25c94d06502681338786604051620002729493929190620007e6565b60405180910390a15050505050565b61259b806200083b83390190565b6000604051905090565b600080fd5b600080fd5b6000819050919050565b620002b881620002a3565b8114620002c457600080fd5b50565b600081359050620002d881620002ad565b92915050565b600060208284031215620002f757620002f662000299565b5b60006200030784828501620002c7565b91505092915050565b600073ffffffffffffffffffffffffffffffffffffffff82169050919050565b6000819050919050565b60006200035b620003556200034f8462000310565b62000330565b62000310565b9050919050565b60006200036f826200033a565b9050919050565b6000620003838262000362565b9050919050565b620003958162000376565b82525050565b6000602082019050620003b260008301846200038a565b92915050565b600081519050919050565b600082825260208201905092915050565b6000819050602082019050919050565b620003ef8162000376565b82525050565b6000620004038383620003e4565b60208301905092915050565b6000602082019050919050565b60006200042982620003b8565b620004358185620003c3565b93506200044283620003d4565b8060005b83811015620004795781516200045d8882620003f5565b97506200046a836200040f565b92505060018101905062000446565b5085935050505092915050565b60006020820190508181036000830152620004a281846200041c565b905092915050565b600080fd5b600080fd5b6000601f19601f8301169050919050565b7f4e487b7100000000000000000000000000000000000000000000000000000000600052604160045260246000fd5b620004ff82620004b4565b810181811067ffffffffffffffff82111715620005215762000520620004c5565b5b80604052505050565b6000620005366200028f565b9050620005448282620004f4565b919050565b600067ffffffffffffffff821115620005675762000566620004c5565b5b6200057282620004b4565b9050602081019050919050565b82818337600083830152505050565b6000620005a56200059f8462000549565b6200052a565b905082815260208101848484011115620005c457620005c3620004af565b5b620005d18482856200057f565b509392505050565b600082601f830112620005f157620005f0620004aa565b5b8135620006038482602086016200058e565b91505092915050565b6000806000806080858703121562000629576200062862000299565b5b600085013567ffffffffffffffff8111156200064a57620006496200029e565b5b6200065887828801620005d9565b945050602085013567ffffffffffffffff8111156200067c576200067b6200029e565b5b6200068a87828801620005d9565b93505060406200069d87828801620002c7565b9250506060620006b087828801620002c7565b91505092959194509250565b6000620006c98262000310565b9050919050565b620006db81620006bc565b82525050565b600081519050919050565b600082825260208201905092915050565b60005b838110156200071d57808201518184015260208101905062000700565b60008484015250505050565b60006200073682620006e1565b620007428185620006ec565b935062000754818560208601620006fd565b6200075f81620004b4565b840191505092915050565b6200077581620002a3565b82525050565b600060a082019050620007926000830188620006d0565b8181036020830152620007a6818762000729565b90508181036040830152620007bc818662000729565b9050620007cd60608301856200076a565b620007dc60808301846200076a565b9695505050505050565b6000608082019050620007fd6000830187620006d0565b6200080c6020830186620006d0565b818103604083015262000820818562000729565b90506200083160608301846200076a565b9594505050505056fe60806040523480156200001157600080fd5b506040516200259b3803806200259b8339818101604052810190620000379190620002f4565b846000806101000a81548173ffffffffffffffffffffffffffffffffffffffff021916908373ffffffffffffffffffffffffffffffffffffffff1602179055508360019081620000889190620005fb565b5082600290816200009a9190620005fb565b50816003819055508042620000b0919062000711565b60048190555050505050506200074c565b6000604051905090565b600080fd5b600080fd5b600073ffffffffffffffffffffffffffffffffffffffff82169050919050565b60006200010282620000d5565b9050919050565b6200011481620000f5565b81146200012057600080fd5b50565b600081519050620001348162000109565b92915050565b600080fd5b600080fd5b6000601f19601f8301169050919050565b7f4e487b7100000000000000000000000000000000000000000000000000000000600052604160045260246000fd5b6200018f8262000144565b810181811067ffffffffffffffff82111715620001b157620001b062000155565b5b80604052505050565b6000620001c6620000c1565b9050620001d4828262000184565b919050565b600067ffffffffffffffff821115620001f757620001f662000155565b5b620002028262000144565b9050602081019050919050565b60005b838110156200022f57808201518184015260208101905062000212565b60008484015250505050565b6000620002526200024c84620001d9565b620001ba565b9050828152602081018484840111156200027157620002706200013f565b5b6200027e8482856200020f565b509392505050565b600082601f8301126200029e576200029d6200013a565b5b8151620002b08482602086016200023b565b91505092915050565b6000819050919050565b620002ce81620002b9565b8114620002da57600080fd5b50565b600081519050620002ee81620002c3565b92915050565b600080600080600060a08688031215620003135762000312620000cb565b5b6000620003238882890162000123565b955050602086015167ffffffffffffffff811115620003475762000346620000d0565b5b620003558882890162000286565b945050604086015167ffffffffffffffff811115620003795762000378620000d0565b5b620003878882890162000286565b93505060606200039a88828901620002dd565b9250506080620003ad88828901620002dd565b9150509295509295909350565b600081519050919050565b7f4e487b7100000000000000000000000000000000000000000000000000000000600052602260045260246000fd5b600060028204905060018216806200040d57607f821691505b602082108103620004235762000422620003c5565b5b50919050565b60008190508160005260206000209050919050565b60006020601f8301049050919050565b600082821b905092915050565b6000600883026200048d7fffffffffffffffffffffffffffffffffffffffffffffffffffffffffffffffff826200044e565b6200049986836200044e565b95508019841693508086168417925050509392505050565b6000819050919050565b6000620004dc620004d6620004d084620002b9565b620004b1565b620002b9565b9050919050565b6000819050919050565b620004f883620004bb565b620005106200050782620004e3565b8484546200045b565b825550505050565b600090565b6200052762000518565b62000534818484620004ed565b505050565b5b818110156200055c57620005506000826200051d565b6001810190506200053a565b5050565b601f821115620005ab57620005758162000429565b62000580846200043e565b8101602085101562000590578190505b620005a86200059f856200043e565b83018262000539565b50505b505050565b600082821c905092915050565b6000620005d060001984600802620005b0565b1980831691505092915050565b6000620005eb8383620005bd565b9150826002028217905092915050565b6200060682620003ba565b67ffffffffffffffff81111562000622576200062162000155565b5b6200062e8254620003f4565b6200063b82828562000560565b600060209050601f8311600181146200067357600084156200065e578287015190505b6200066a8582620005dd565b865550620006da565b601f198416620006838662000429565b60005b82811015620006ad5784890151825560018201915060208501945060208101905062000686565b86831015620006cd5784890151620006c9601f891682620005bd565b8355505b6001600288020188555050505b505050505050565b7f4e487b7100000000000000000000000000000000000000000000000000000000600052601160045260246000fd5b60006200071e82620002b9565b91506200072b83620002b9565b9250828201905080821115620007465762000745620006e2565b5b92915050565b611e3f806200075c6000396000f3fe6080604052600436106100fe5760003560e01c80634a79d50c11610095578063b473f19911610064578063b473f1991461032d578063c5c4744c14610356578063d7bb99ba14610381578063e2701c241461038b578063e89e4ed6146103c8576100fe565b80634a79d50c1461026f5780637284e4161461029a5780637c654303146102c5578063ab2850da146102f0576100fe565b80632e1a7d4d116100d15780632e1a7d4d146101ad57806340193883146101d65780634051ddac1461020157806342e94c9014610232576100fe565b80630121b93f1461010357806302d05d3f1461012c5780630b49351c1461015757806329dcb0cf14610182575b600080fd5b34801561010f57600080fd5b5061012a600480360381019061012591906110d6565b610409565b005b34801561013857600080fd5b506101416106fa565b60405161014e9190611144565b60405180910390f35b34801561016357600080fd5b5061016c61071e565b604051610179919061116e565b60405180910390f35b34801561018e57600080fd5b5061019761072b565b6040516101a4919061116e565b60405180910390f35b3480156101b957600080fd5b506101d460048036038101906101cf91906110d6565b610731565b005b3480156101e257600080fd5b506101eb610951565b6040516101f8919061116e565b60405180910390f35b34801561020d57600080fd5b50610216610957565b6040516102299796959493929190611219565b60405180910390f35b34801561023e57600080fd5b50610259600480360381019061025491906112c2565b610ac0565b604051610266919061116e565b60405180910390f35b34801561027b57600080fd5b50610284610ad8565b60405161029191906112ef565b60405180910390f35b3480156102a657600080fd5b506102af610b66565b6040516102bc91906112ef565b60405180910390f35b3480156102d157600080fd5b506102da610bf4565b6040516102e7919061132c565b60405180910390f35b3480156102fc57600080fd5b5061031760048036038101906103129190611347565b610c07565b604051610324919061132c565b60405180910390f35b34801561033957600080fd5b50610354600480360381019061034f91906114bc565b610c36565b005b34801561036257600080fd5b5061036b610e71565b604051610378919061116e565b60405180910390f35b610389610e77565b005b34801561039757600080fd5b506103b260048036038101906103ad91906110d6565b610f8c565b6040516103bf919061116e565b60405180910390f35b3480156103d457600080fd5b506103ef60048036038101906103ea91906110d6565b610fa4565b604051610400959493929190611518565b60405180910390f35b6000600860003373ffffffffffffffffffffffffffffffffffffffff1673ffffffffffffffffffffffffffffffffffffffff168152602001908152602001600020541161048b576040517f08c379a0000000000000000000000000000000000000000000000000000000008152600401610482906115be565b60405180910390fd5b6000600782815481106104a1576104a06115de565b5b906000526020600020906004020190508060020160019054906101000a900460ff1615610503576040517f08c379a00000000000000000000000000000000000000000000000000000000081526004016104fa90611659565b60405180910390fd5b6009600083815260200190815260200160002060003373ffffffffffffffffffffffffffffffffffffffff1673ffffffffffffffffffffffffffffffffffffffff16815260200190815260200160002060009054906101000a900460ff16156105a1576040517f08c379a0000000000000000000000000000000000000000000000000000000008152600401610598906116c5565b60405180910390fd5b60016009600084815260200190815260200160002060003373ffffffffffffffffffffffffffffffffffffffff1673ffffffffffffffffffffffffffffffffffffffff16815260200190815260200160002060006101000a81548160ff021916908315150217905550600860003373ffffffffffffffffffffffffffffffffffffffff1673ffffffffffffffffffffffffffffffffffffffff16815260200190815260200160002054600a6000848152602001908152602001600020600082825461066c9190611714565b9250508190555060026005546106829190611777565b600a60008481526020019081526020016000205411156106ba5760018160020160006101000a81548160ff0219169083151502179055505b7fd356173ae8eeea8691aee4c1be712c314a975a3d43ebc48b08ca54d0dac91228338360016040516106ee939291906117a8565b60405180910390a15050565b60008054906101000a900473ffffffffffffffffffffffffffffffffffffffff1681565b6000600780549050905090565b60045481565b60008054906101000a900473ffffffffffffffffffffffffffffffffffffffff1673ffffffffffffffffffffffffffffffffffffffff163373ffffffffffffffffffffffffffffffffffffffff16146107bf576040517f08c379a00000000000000000000000000000000000000000000000000000000081526004016107b69061182b565b60405180910390fd5b6000600782815481106107d5576107d46115de565b5b906000526020600020906004020190508060020160009054906101000a900460ff16610836576040517f08c379a000000000000000000000000000000000000000000000000000000000815260040161082d90611897565b60405180910390fd5b8060020160019054906101000a900460ff1615610888576040517f08c379a000000000000000000000000000000000000000000000000000000000815260040161087f90611903565b60405180910390fd5b60018160020160016101000a81548160ff02191690831515021790555060008054906101000a900473ffffffffffffffffffffffffffffffffffffffff1673ffffffffffffffffffffffffffffffffffffffff166108fc82600101549081150290604051600060405180830381858888f1935050505015801561090f573d6000803e3d6000fd5b507f80230996023d69b50793fa73f1919127c9d8e741d3989743c479169f22e7a288828260010154604051610945929190611923565b60405180910390a15050565b60035481565b60008060008060006060806003546005544760045460008054906101000a900473ffffffffffffffffffffffffffffffffffffffff166001600281805461099d9061197b565b80601f01602080910402602001604051908101604052809291908181526020018280546109c99061197b565b8015610a165780601f106109eb57610100808354040283529160200191610a16565b820191906000526020600020905b8154815290600101906020018083116109f957829003601f168201915b50505050509150808054610a299061197b565b80601f0160208091040260200160405190810160405280929190818152602001828054610a559061197b565b8015610aa25780601f10610a7757610100808354040283529160200191610aa2565b820191906000526020600020905b815481529060010190602001808311610a8557829003601f168201915b50505050509050965096509650965096509650965090919293949596565b60086020528060005260406000206000915090505481565b60018054610ae59061197b565b80601f0160208091040260200160405190810160405280929190818152602001828054610b119061197b565b8015610b5e5780601f10610b3357610100808354040283529160200191610b5e565b820191906000526020600020905b815481529060010190602001808311610b4157829003601f168201915b505050505081565b60028054610b739061197b565b80601f0160208091040260200160405190810160405280929190818152602001828054610b9f9061197b565b8015610bec5780601f10610bc157610100808354040283529160200191610bec565b820191906000526020600020905b815481529060010190602001808311610bcf57829003601f168201915b505050505081565b600660009054906101000a900460ff1681565b60096020528160005260406000206020528060005260406000206000915091509054906101000a900460ff1681565b60008054906101000a900473ffffffffffffffffffffffffffffffffffffffff1673ffffffffffffffffffffffffffffffffffffffff163373ffffffffffffffffffffffffffffffffffffffff1614610cc4576040517f08c379a0000000000000000000000000000000000000000000000000000000008152600401610cbb9061182b565b60405180910390fd5b600660009054906101000a900460ff16610d13576040517f08c379a0000000000000000000000000000000000000000000000000000000008152600401610d0a906119f8565b60405180910390fd5b80471015610d56576040517f08c379a0000000000000000000000000000000000000000000000000000000008152600401610d4d90611a64565b60405180910390fd5b60006040518060a001604052808481526020018381526020016000151581526020016000151581526020016000815250905060078190806001815401808255809150506001900390600052602060002090600402016000909190919091506000820151816000019081610dc99190611c30565b506020820151816001015560408201518160020160006101000a81548160ff02191690831515021790555060608201518160020160016101000a81548160ff0219169083151502179055506080820151816003015550507fe6f89d35e2b86a44581f593e60fd235cd13f8f8344a1ec2bf4aefea90e3ddfb36001600780549050610e539190611d02565b8484604051610e6493929190611d36565b60405180910390a1505050565b60055481565b6004544210610ebb576040517f08c379a0000000000000000000000000000000000000000000000000000000008152600401610eb290611dc0565b60405180910390fd5b34600860003373ffffffffffffffffffffffffffffffffffffffff1673ffffffffffffffffffffffffffffffffffffffff1681526020019081526020016000206000828254610f0a9190611714565b925050819055503460056000828254610f239190611714565b9250508190555060035460055410610f51576001600660006101000a81548160ff0219169083151502179055505b7f62722348256371b5147820d6cad90c40fd2da1ccee18c3ed52c0bca5a61dbbab3334604051610f82929190611de0565b60405180910390a1565b600a6020528060005260406000206000915090505481565b60078181548110610fb457600080fd5b9060005260206000209060040201600091509050806000018054610fd79061197b565b80601f01602080910402602001604051908101604052809291908181526020018280546110039061197b565b80156110505780601f1061102557610100808354040283529160200191611050565b820191906000526020600020905b81548152906001019060200180831161103357829003601f168201915b5050505050908060010154908060020160009054906101000a900460ff16908060020160019054906101000a900460ff16908060030154905085565b6000604051905090565b600080fd5b600080fd5b6000819050919050565b6110b3816110a0565b81146110be57600080fd5b50565b6000813590506110d0816110aa565b92915050565b6000602082840312156110ec576110eb611096565b5b60006110fa848285016110c1565b91505092915050565b600073ffffffffffffffffffffffffffffffffffffffff82169050919050565b600061112e82611103565b9050919050565b61113e81611123565b82525050565b60006020820190506111596000830184611135565b92915050565b611168816110a0565b82525050565b6000602082019050611183600083018461115f565b92915050565b600081519050919050565b600082825260208201905092915050565b60005b838110156111c35780820151818401526020810190506111a8565b60008484015250505050565b6000601f19601f8301169050919050565b60006111eb82611189565b6111f58185611194565b93506112058185602086016111a5565b61120e816111cf565b840191505092915050565b600060e08201905061122e600083018a61115f565b61123b602083018961115f565b611248604083018861115f565b611255606083018761115f565b6112626080830186611135565b81810360a083015261127481856111e0565b905081810360c083015261128881846111e0565b905098975050505050505050565b61129f81611123565b81146112aa57600080fd5b50565b6000813590506112bc81611296565b92915050565b6000602082840312156112d8576112d7611096565b5b60006112e6848285016112ad565b91505092915050565b6000602082019050818103600083015261130981846111e0565b905092915050565b60008115159050919050565b61132681611311565b82525050565b6000602082019050611341600083018461131d565b92915050565b6000806040838503121561135e5761135d611096565b5b600061136c858286016110c1565b925050602061137d858286016112ad565b9150509250929050565b600080fd5b600080fd5b7f4e487b7100000000000000000000000000000000000000000000000000000000600052604160045260246000fd5b6113c9826111cf565b810181811067ffffffffffffffff821117156113e8576113e7611391565b5b80604052505050565b60006113fb61108c565b905061140782826113c0565b919050565b600067ffffffffffffffff82111561142757611426611391565b5b611430826111cf565b9050602081019050919050565b82818337600083830152505050565b600061145f61145a8461140c565b6113f1565b90508281526020810184848401111561147b5761147a61138c565b5b61148684828561143d565b509392505050565b600082601f8301126114a3576114a2611387565b5b81356114b384826020860161144c565b91505092915050565b600080604083850312156114d3576114d2611096565b5b600083013567ffffffffffffffff8111156114f1576114f061109b565b5b6114fd8582860161148e565b925050602061150e858286016110c1565b9150509250929050565b600060a082019050818103600083015261153281886111e0565b9050611541602083018761115f565b61154e604083018661131d565b61155b606083018561131d565b611568608083018461115f565b9695505050505050565b7f4f6e6c7920636f6e7472696275746f72732063616e2063616c6c207468697300600082015250565b60006115a8601f83611194565b91506115b382611572565b602082019050919050565b600060208201905081810360008301526115d78161159b565b9050919050565b7f4e487b7100000000000000000000000000000000000000000000000000000000600052603260045260246000fd5b7f4d696c6573746f6e6520616c72656164792072656c6561736564000000000000600082015250565b6000611643601a83611194565b915061164e8261160d565b602082019050919050565b6000602082019050818103600083015261167281611636565b9050919050565b7f416c726561647920766f74656400000000000000000000000000000000000000600082015250565b60006116af600d83611194565b91506116ba82611679565b602082019050919050565b600060208201905081810360008301526116de816116a2565b9050919050565b7f4e487b7100000000000000000000000000000000000000000000000000000000600052601160045260246000fd5b600061171f826110a0565b915061172a836110a0565b9250828201905080821115611742576117416116e5565b5b92915050565b7f4e487b7100000000000000000000000000000000000000000000000000000000600052601260045260246000fd5b6000611782826110a0565b915061178d836110a0565b92508261179d5761179c611748565b5b828204905092915050565b60006060820190506117bd6000830186611135565b6117ca602083018561115f565b6117d7604083018461131d565b949350505050565b7f4f6e6c792063726561746f722063616e2063616c6c2074686973000000000000600082015250565b6000611815601a83611194565b9150611820826117df565b602082019050919050565b6000602082019050818103600083015261184481611808565b9050919050565b7f4d696c6573746f6e65206e6f7420617070726f76656400000000000000000000600082015250565b6000611881601683611194565b915061188c8261184b565b602082019050919050565b600060208201905081810360008301526118b081611874565b9050919050565b7f416c72656164792072656c656173656400000000000000000000000000000000600082015250565b60006118ed601083611194565b91506118f8826118b7565b602082019050919050565b6000602082019050818103600083015261191c816118e0565b9050919050565b6000604082019050611938600083018561115f565b611945602083018461115f565b9392505050565b7f4e487b7100000000000000000000000000000000000000000000000000000000600052602260045260246000fd5b6000600282049050600182168061199357607f821691505b6020821081036119a6576119a561194c565b5b50919050565b7f43616d706169676e206d757374206265206d657420676f616c20666972737400600082015250565b60006119e2601f83611194565b91506119ed826119ac565b602082019050919050565b60006020820190508181036000830152611a11816119d5565b9050919050565b7f496e73756666696369656e742062616c616e6365000000000000000000000000600082015250565b6000611a4e601483611194565b9150611a5982611a18565b602082019050919050565b60006020820190508181036000830152611a7d81611a41565b9050919050565b60008190508160005260206000209050919050565b60006020601f8301049050919050565b600082821b905092915050565b600060088302611ae67fffffffffffffffffffffffffffffffffffffffffffffffffffffffffffffffff82611aa9565b611af08683611aa9565b95508019841693508086168417925050509392505050565b6000819050919050565b6000611b2d611b28611b23846110a0565b611b08565b6110a0565b9050919050565b6000819050919050565b611b4783611b12565b611b5b611b5382611b34565b848454611ab6565b825550505050565b600090565b611b70611b63565b611b7b818484611b3e565b505050565b5b81811015611b9f57611b94600082611b68565b600181019050611b81565b5050565b601f821115611be457611bb581611a84565b611bbe84611a99565b81016020851015611bcd578190505b611be1611bd985611a99565b830182611b80565b50505b505050565b600082821c905092915050565b6000611c0760001984600802611be9565b1980831691505092915050565b6000611c208383611bf6565b9150826002028217905092915050565b611c3982611189565b67ffffffffffffffff811115611c5257611c51611391565b5b611c5c825461197b565b611c67828285611ba3565b600060209050601f831160018114611c9a5760008415611c88578287015190505b611c928582611c14565b865550611cfa565b601f198416611ca886611a84565b60005b82811015611cd057848901518255600182019150602085019450602081019050611cab565b86831015611ced5784890151611ce9601f891682611bf6565b8355505b6001600288020188555050505b505050505050565b6000611d0d826110a0565b9150611d18836110a0565b9250828203905081811115611d3057611d2f6116e5565b5b92915050565b6000606082019050611d4b600083018661115f565b8181036020830152611d5d81856111e0565b9050611d6c604083018461115f565b949350505050565b7f43616d706169676e2068617320656e6465640000000000000000000000000000600082015250565b6000611daa601283611194565b9150611db582611d74565b602082019050919050565b60006020820190508181036000830152611dd981611d9d565b9050919050565b6000604082019050611df56000830185611135565b611e02602083018461115f565b939250505056fea26469706673582212206ec734c48df407a53aa1dee3dcb02efbbffe86ecbd0b5d8e52b84519ee20b88664736f6c63430008140033a2646970667358221220f96ef5c2cf07301edb1e67fbc562aab9af77412608cfb0793c0bcf4eee80ffd764736f6c63430008140033",
  "linkReferences": {},
  "deployedLinkReferences": {}
}